:020000040800F2
:100000000080012085030008930300089303000883
:100010009303000893030008930300080000000006
:100020000000000000000000000000009303000832
:1000300093030008000000009303000893030008E6
:100040009303000893030008930300089303000838
:100050009303000893030008930300089303000828
:100060009303000893030008930300089303000818
:100070009303000893030008930300089303000808
:100080009303000893030008930300080000000096
:1000900000000000000000000000000093030008C2
:1000A00093030008930300089303000893030008D8
:1000B00093030008930300089303000893030008C8
:1000C00093030008930300089303000893030008B8
:1000D0009303000893030008930300080000000046
:1000E0009303000893030008930300080000000036
:1000F0000000000000000000000000009303000862
:100100000000000093030008930300089303000815
:1001100000000000000000000000000000000000DF
:100120009303000893030008930300089303000857
:100130009303000800000000000000000000000021
:100140000000000000000000000000009303000811
:100150009303000893030008930300089303000827
:100160009303000893030008000000000000000053
:10017000000000000000000000000000000000007F
:1001800000000000930300080000000000000000D1
:100190009303000880B500AF0F4B1B6B0E4A43F072
:1001A000010313630D4B1B680C4A43F48063136017
:1001B00000F0F2F80346022BFAD1084B20229A6194
:1001C000C82000F00DF8054B4FF400129A61C820CA
:1001D00000F006F8ECE700BF0038024000000240E3
:1001E00080B485B000AF78600023FB600DE0002391
:1001F000BB6002E0BB680133BB60BB6844F61F62B2
:100200009342F7D9FB680133FB60FA687B689A4236
:10021000EDD300BF00BF1437BD4680BC704700BFA0
:1002200080B400AF344B1B6C334A43F080531364EB
:10023000324B1B68314A43F40043136000BF2E4B1E
:100240001B6803F00203002BF9D02C4B1B682B4AD0
:1002500043F080031360284B1B68274A23F0807308
:10026000136000BF244B1B6803F00073002BF9D10F
:10027000214B234A5A60204B1B681F4A43F080736E
:10028000136000BF1C4B1B6803F00073002BF9D0F8
:100290001C4B1B681B4A43F4407343F0020313607A
:1002A000154B9B68144A43F00203936000BF124B46
:1002B0009B6803F00803082BF9D10F4B9B680E4A8B
:1002C00023F0F00393600C4B9B680B4A43F480537C
:1002D0009360094B9B68084A23F4604393600A4B80
:1002E0005B68094A43F007035360084B084A1A60E9
:1002F00000BFBD4680BC704700380240007000401F
:1003000010540107003C0240002004E000000020DF
:1003100000BD010580B400AF00BFBD4680BC704782
:1003200080B485B000AF124BFB6005E0FB68002293
:100330001A60FB680433FB60FB680E4A9342F5D3F6
:100340000D4BBB600D4B7B6008E0BB681A1DBA60AB
:100350001A687B681A607B6804337B607B68084A94
:100360009342F2D300BF00BF1437BD4680BC704734
:100370000000002004000020040900080000002004
:1003800000000020FFF7CCFFFFF74AFFFFF702FF56
:10039000FEE780B400AFFEE780B483B000AF032374
:1003A000FB71114B9B689B0803F00303002B02D1E8
:1003B0000023FB7112E00C4B9B689B0803F00303C6
:1003C000012B02D10123FB7108E0074B9B689B08BE
:1003D00003F00303022B01D10223FB71FB791846C2
:1003E0000C37BD4680BC70470038024080B483B0F3
:1003F00000AF0023FB710C4B5B6803F48003002B00
:1004000002D10023FB7108E0074B5B689B0D03F0F2
:100410000103012B01D10123FB71FB7918460C3735
:10042000BD4680BC704700BF0038024080B584B034
:1004300000AF0023FB600023BB6000F055F80346CB
:10044000FB71FFF7A9FF0346002B02D1234BFB6092
:100450003EE0FFF7A1FF0346012B02D1204BFB60DA
:1004600036E0FFF799FF0346022B31D1FFF7BEFFBD
:100470000346002B04D1194800F00EFAB86008E0DA
:10048000FFF7B4FF0346012B03D1154800F004FA2F
:10049000B860FB79002B03D14FF0FF33FB6017E00E
:1004A000FB79002B14D0FB79BA68B2FBF3F3FB6045
:1004B000FB680C4A934203D94FF0FF33FB6007E01F
:1004C000FB68084A934203D8FB6823F06043FB6053
:1004D000FB6818461037BD4680BD00BF0024F400FD
:1004E000002D310100BD010580B483B000AF164B73
:1004F0005B681B0CDBB203F00303FB71FB7903F0B9
:100500000303002B02D10223FB7116E0FB7903F0F9
:100510000303012B02D10423FB710EE0FB7903F0EE
:100520000303022B02D10623FB7106E0FB7903F0E3
:100530000303022B01D10823FB71FB7918460C370A
:10054000BD4680BC704700BF0038024080B483B015
:1005500000AF174B5B689B099BB2C3F30803FB809A
:10056000FB88C3F30803BF2B03D84FF6FF73FB8050
:1005700018E0FB88C3F30803B3F5D87F03D94FF61F
:10058000FF73FB800EE0FB88C3F30803BF2B09D980
:10059000FB88C3F30803B3F5D87F03D8FB88C3F304
:1005A0000803FB80FB8818460C37BD4680BC7047AB
:1005B0000038024080B483B000AF0E4B5B68DBB202
:1005C00003F03F03FB71FB7903F03E03002B02D1E4
:1005D000FF23FB7108E0FB7903F03E03002B03D0FF
:1005E000FB7903F03F03FB71FB7918460C37BD46DE
:1005F00080BC70470038024080B483B000AF0F4B1E
:100600005B681B0EDBB203F00F03FB71FB7903F099
:100610000E03002B02D1FF23FB7108E0FB7903F0EE
:100620000E03002B03D0FB7903F00F03FB71FB7962
:1006300018460C37BD4680BC704700BF00380240EA
:1006400080B584B000AF0023FB600023BB60FFF7E0
:10065000D3FF0346FB71FFF79FFE0346002B02D139
:10066000234BFB603EE0FFF797FE0346012B02D1D0
:10067000204BFB6036E0FFF78FFE0346022B31D1A3
:10068000FFF7B4FE0346002B04D1194800F004F92B
:10069000B86008E0FFF7AAFE0346012B03D1154816
:1006A00000F0FAF8B860FB79002B03D14FF0FF336C
:1006B000FB6017E0FB79002B14D0FB79BA68B2FB22
:1006C000F3F3FB60FB680C4A934203D94FF0FF330E
:1006D000FB6007E0FB68084A934203D8FB6823F0FD
:1006E0006043FB60FB6818461037BD4680BD00BF05
:1006F0000024F400002D3101006CDC0280B483B0D2
:1007000000AF2C4B9B681B099BB203F00F03FB80CF
:10071000FB88002B14D0FB88012B11D0FB88022B07
:100720000ED0FB88032B0BD0FB88042B08D0FB8852
:10073000052B05D0FB88062B02D0FB88072B02D1A6
:100740000123FB8030E0FB88082B02D10223FB80D1
:100750002AE0FB88092B02D10423FB8024E0FB88DC
:100760000A2B02D10823FB801EE0FB880B2B02D151
:100770001023FB8018E0FB880C2B02D14023FB8068
:1007800012E0FB880D2B02D18023FB800CE0FB885C
:100790000E2B03D14FF48073FB8005E0FB880F2BF9
:1007A00002D14FF40073FB80FB8818460C37BD461E
:1007B00080BC70470038024080B483B000AF194B52
:1007C0009B689B0ADBB203F00703FB71FB79002BEC
:1007D00008D0FB79012B05D0FB79022B02D0FB79E5
:1007E000032B02D10123FB7116E0FB79042B02D10C
:1007F0000223FB7110E0FB79052B02D10423FB716E
:100800000AE0FB79062B02D10823FB7104E0FB7997
:10081000072B01D11023FB71FB7918460C37BD461D
:1008200080BC70470038024080B483B000AF194BE1
:100830009B685B0BDBB203F00703FB71FB79002BBA
:1008400008D0FB79012B05D0FB79022B02D0FB7974
:10085000032B02D10123FB7116E0FB79042B02D19B
:100860000223FB7110E0FB79052B02D10423FB71FD
:100870000AE0FB79062B02D10823FB7104E0FB7927
:10088000072B01D11023FB71FB7918460C37BD46AD
:1008900080BC70470038024080B584B000AF7860FB
:1008A0000023FB60FFF752FE03467B81FFF782FEC9
:1008B00003467B727B894FF6FF7293420FD07B7A9F
:1008C000FF2B0CD07B7A002B09D07A897B7A92FBA4
:1008D000F3F31A467B6802FB03F3FB600DE07B89B0
:1008E0004FF6FF72934208D17B7AFF2B05D17B7ABA
:1008F000002B02D14FF0FF33FB60FB681846103726
:04090000BD4680BDB3
:040000050800038567
:00000001FF
