:020000040800F2
:100000000080012035030008430300084303000873
:1000100043030008430300084303000800000000F6
:100020000000000000000000000000004303000882
:1000300043030008000000004303000843030008D6
:100040004303000843030008430300084303000878
:100050004303000843030008430300084303000868
:100060004303000843030008430300084303000858
:100070004303000843030008430300084303000848
:100080004303000843030008430300080000000086
:100090000000000000000000000000004303000812
:1000A0004303000843030008430300084303000818
:1000B0004303000843030008430300084303000808
:1000C00043030008430300084303000843030008F8
:1000D0004303000843030008430300080000000036
:1000E0004303000843030008430300080000000026
:1000F00000000000000000000000000043030008B2
:100100000000000043030008430300084303000805
:1001100000000000000000000000000000000000DF
:100120004303000843030008430300084303000897
:100130004303000800000000000000000000000071
:100140000000000000000000000000004303000861
:100150004303000843030008430300084303000867
:1001600043030008430300080000000000000000F3
:10017000000000000000000000000000000000007F
:100180000000000043030008000000000000000021
:100190004303000880B582B000AF0B4B1B687B6047
:1001A0003B1D184600F0FCF8084B20229A614FF4E2
:1001B000FA6000F0C9F8054B4FF400129A614FF451
:1001C000FA6000F0C1F8EFE75404000800000240B4
:1001D00080B400AF344B1B6C334A43F0805313643C
:1001E000324B1B68314A43F40043136000BF2E4B6F
:1001F0001B6803F00203002BF9D02C4B1B682B4A21
:1002000043F080031360284B1B68274A23F0807358
:10021000136000BF244B1B6803F00073002BF9D15F
:10022000214B234A5A60204B1B681F4A43F08073BE
:10023000136000BF1C4B1B6803F00073002BF9D048
:100240001C4B1B681B4A43F4407343F002031360CA
:10025000154B9B68144A43F00203936000BF124B96
:100260009B6803F00803082BF9D10F4B9B680E4ADB
:1002700023F0F00393600C4B9B680B4A43F48053CC
:100280009360094B9B68084A23F4604393600A4BD0
:100290005B68094A43F007035360084B084A1A6039
:1002A00000BFBD4680BC704700380240007000406F
:1002B00010540107003C0240002004E01800002018
:1002C00000BD010580B400AF00BFBD4680BC7047D3
:1002D00080B485B000AF124BFB6005E0FB680022E4
:1002E0001A60FB680433FB60FB680E4A9342F5D347
:1002F0000D4BBB600D4B7B6008E0BB681A1DBA60FC
:100300001A687B681A607B6804337B607B68084AE4
:100310009342F2D300BF00BF1437BD4680BC704784
:10032000180000201C0000207004000800000020BD
:1003300018000020FFF7CCFFFFF74AFFFFF72AFF66
:10034000FEE780B400AFFEE780B582B000AF0346A1
:10035000FB80FB88184600F004F800BF0837BD4654
:1003600080BD80B485B000AF0346FB800023FB60F6
:100370000CE00023BB6002E0BB680133BB60BB68DC
:10038000B3F57A7FF8D3FB680133FB60FB88FA682A
:100390009A42EED300BF00BF1437BD4680BC704701
:1003A00080B483B000AF7860134B1A6B7B689B7886
:1003B0001946124B53F821300F4913430B637B68E6
:1003C0009B781A460E4B53F822301A687B68DB780C
:1003D00019467B681B885B0001FA03F319467B68AA
:1003E0009B781846064B53F820300A431A6000BF2A
:1003F0000C37BD4680BC70470038024058040008E6
:100400000000002080B483B000AF03460A46FB80A2
:1004100013467B7100BF0C37BD4680BC704780B46B
:1004200000AF00BFBD4680BC704780B483B000AF52
:10043000786000BF0C37BD4680BC704780B483B085
:1004400000AF03463960FB8000BF0C37BD4680BC5F
:10045000704700BF0500000101000000020000001D
:1004600004000000080000001000000080000000F0
:10047000000002400004024000080240000C02405C
:0804800000100240001C0240C4
:0400000508000335B7
:00000001FF
